:100000000C9463000C94CB080C94A4080C944A093B
:100010000C944A090C944A090C948B000C948B00A4
:100020000C948B000C948B000C948B000C948B0024
:100030000C948B000C948B000C948B000C948B0014
:100040000C945A080C948B000C9418090C94F20828
:100050000C948B000C948B000C948B000C948B00F4
:100060000C948B000C948B000000000024002700EF
:100070002A0000000008000201000003040700003D
:1000800000000000000000000000230026002900FE
:1000900000000000250028002B00040404040404D0
:1000A0000404020202020202030303030303010227
:1000B00004081020408001020408102001020408F6
:1000C0001020D3099F0F11241FBECFEFD8E0DEBF51
:1000D000CDBF24E0A0EDB2E001C01D92A531B20772
:1000E000E1F712E0A0E0B1E0E8EDF4E202C0059033
:1000F0000D92A03DB107D9F710E0C2E6D0E004C0F0
:100100002197FE010E946710C136D107C9F70E94EE
:10011000BF0A0C945F120C940000833081F028F425
:10012000813099F08230A9F008958730A9F08830A5
:10013000C9F08430B1F4809180008F7D03C080913C
:1001400080008F7780938000089584B58F7784BD79
:10015000089584B58F7DFBCF8091B0008F77809319
:10016000B00008958091B0008F7DF9CFCF93DF93D9
:10017000282F30E0F901EE58FF4F8491F901E25544
:10018000FF4FD491F901E656FF4FC491CC23A1F063
:1001900081110E948D00EC2FF0E0EE0FFF1FEA5757
:1001A000FF4FA591B491EC91ED2381E090E009F42B
:1001B00080E0DF91CF91089580E090E0FACF1F9327
:1001C000CF93DF93282F30E0F901EE58FF4F849151
:1001D000F901E255FF4FD491F901E656FF4FC49162
:1001E000CC23A9F0162F81110E948D00EC2FF0E096
:1001F000EE0FFF1FE057FF4FA591B4918FB7F89412
:10020000EC91111108C0D095DE23DC938FBFDF91F4
:10021000CF911F910895DE2BF8CFCF93DF9390E01D
:10022000FC01E255FF4F249186569F4FFC018491BB
:100230008823C9F090E0880F991FFC01E859FF4F0F
:10024000A591B491FC01E057FF4FC591D491611184
:100250000DC09FB7F8948C91209582238C93888150
:10026000282328839FBFDF91CF910895623051F4F6
:100270009FB7F8943C91822F809583238C93E881DB
:100280002E2BEFCF8FB7F894EC912E2B2C938FBFA2
:10029000EACF3FB7F8948091290390912A03A09167
:1002A0002B03B0912C0326B5A89B05C02F3F19F056
:1002B0000196A11DB11D3FBFBA2FA92F982F8827E6
:1002C000BC01CD01620F711D811D911D42E0660FC1
:1002D000771F881F991F4A95D1F708958F929F9293
:1002E000AF92BF92CF92DF92EF92FF926B017C01AF
:1002F0000E9449014B015C01C114D104E104F104E5
:10030000B9F00E944901681979098A099B09683E78
:1003100073408105910580F321E0C21AD108E108FC
:10032000F10888EE880E83E0981EA11CB11CE4CF72
:10033000FF90EF90DF90CF90BF90AF909F908F9005
:1003400008950895DB0114964D915C9115976D9178
:100350007C91DC01ED91FC910280F381E02D099408
:10036000AF92BF92CF92DF92EF92FF920F931F93C3
:10037000CF93DF936C017B018B01040F151FEB0101
:100380005E01AE18BF08C017D10759F06991D601B8
:10039000ED91FC910190F081E02DC6010995892B2A
:1003A00079F7C501DF91CF911F910F91FF90EF90E9
:1003B000DF90CF90BF90AF900895FC01538D448D96
:1003C000252F30E0842F90E0821B930B541710F000
:1003D000CF96089501970895FC01918D828D98170D
:1003E00061F0A28DAE0FBF2FB11D5D968C91928DE5
:1003F0009F5F9F73928F90E008958FEF9FEF089516
:10040000FC01918D828D981731F0828DE80FF11DDE
:10041000858D90E008958FEF9FEF0895FC01918DF9
:10042000228D892F90E0805C9F4F821B91098F73F2
:100430009927089581E393E00E940E0221E0892B21
:1004400009F420E0822F089580E090E0892B29F0C4
:100450000E941A0281110C9400000895FC01A48DE1
:10046000A80FB92FB11DA35ABF4F2C91848D90E0D6
:1004700001968F739927848FA689B7892C93A089B9
:10048000B1898C91837080648C93938D848D981343
:1004900006C00288F389E02D80818F7D80830895D6
:1004A000EF92FF920F931F93CF93DF93EC0181E0C4
:1004B000888F9B8D8C8D98131AC0E889F98980816B
:1004C00085FF15C09FB7F894EE89FF896083E8899E
:1004D000F98980818370806480839FBF81E090E090
:1004E000DF91CF911F910F91FF90EF900895F62E1D
:1004F0000B8D10E00F5F1F4F0F731127E02E8C8DB7
:100500008E110CC00FB607FCFACFE889F9898081FB
:1005100085FFF5CFCE010E942E02F1CFEB8DEC0FBF
:10052000FD2FF11DE35AFF4FF0829FB7F8940B8F18
:10053000EA89FB8980818062CFCFCF93DF93EC0182
:10054000888D8823B9F0AA89BB89E889F9898C91BB
:1005500085FD03C0808186FD0DC00FB607FCF7CF77
:100560008C9185FFF2CF808185FFEDCFCE010E9477
:100570002E02E9CFDF91CF91089520911A03309197
:100580001B032817390771F4909118038091190300
:10059000981741F0E0911803F0E0E852FD4F808198
:1005A00090E008958FEF9FEF08950895EF92FF92E6
:1005B0000F931F93CF93DF93DC015C96ED90FC903B
:1005C0005D97E114F10479F481E090E013969C9337
:1005D0008E93129790E080E0DF91CF911F910F9161
:1005E000FF90EF9008955196ED91FC91529750969F
:1005F0008C915097982F90950FB75E962C915E979F
:10060000122F127021FD6095F8942081112319F1A9
:10061000282B2083E7012197F1F728E0462F50E0AF
:10062000308160FF1AC0382B3083E7012197F1F742
:10063000BA0175956795215089F7112381F0808162
:10064000892380830FBF5C968D919C910197F1F770
:1006500081E090E0C1CF2923DCCF3923E5CF908121
:10066000892BEFCF20911A0330911B0328173907EC
:1006700061F4809119032091180390E0805C9F4FF2
:10068000821B91098F739927089590E080E0089567
:1006900020911A0330911B0328173907B9F4909160
:1006A000180380911903981789F0E0911803F0E07E
:1006B000E852FD4F80812091180330E02F5F3F4FBB
:1006C0002F7333272093180390E008958FEF9FEF47
:1006D0000895089590E080E00895CF93DF93EC01B2
:1006E00060E08E810E94DF0061E08E810E94DF0069
:1006F00060E08E810E94DF008BE891E00197F1F7C6
:10070000DF91CF910895CF92DF92EF92FF920F93F6
:100710001F93CF93DF936C017C0187E0E80EF11CFF
:10072000D0E0C0E0062F10E0B8010C2E02C0759595
:1007300067950A94E2F76170F70181917F010E9449
:10074000DF002196C430D10579F7C601DF91CF9142
:100750001F910F91FF90EF90DF90CF900C946D035D
:10076000CF92DF92EF92FF920F931F93CF93DF937D
:10077000EC01F62E642F8C810E94DF008D818F3F6B
:1007800019F060E00E94DF000F2D10E08F8584FFDC
:1007900025C06E0187E0C80ED11CF12CE12CB801F8
:1007A0000E2C02C0759567950A94E2F76170F60108
:1007B00081916F010E94DF00FFEFEF1AFF0A88E0CE
:1007C000E816F10461F7CE01DF91CF911F910F91EF
:1007D000FF90EF90DF90CF900C946D03B80184E010
:1007E000759567958A95E1F7CE010E9483036F2D79
:1007F000CE01DF91CF911F910F91FF90EF90DF908D
:10080000CF900C94830340E0682F89EF93E00C9421
:10081000B00381E00E9403048BE39FE10197F1F7AD
:100820000895CF93DF93823029F490910804986063
:100830009093080480930C0410920D0480E480933C
:100840000E0480E180930F0480E58093100461E042
:100850008091FD030E940D018091FE038F3F19F0EE
:1008600061E00E940D0161E08091FF030E940D0193
:10087000C9EFD3E09E01295F33408091080484FDD5
:100880000BC084E090E021962817390744F461E01A
:100890008E810E940D01EECF88E090E0F4CF8BE3D3
:1008A0009DE00197F1F760E08091FD030E94DF0079
:1008B00060E08091FF030E94DF008091FE038F3F84
:1008C00019F060E00E94DF008091080484FD34C0CC
:1008D00063E089EF93E00E948303CBE4D6E4CE018A
:1008E0000197F1F763E089EF93E00E94830321977A
:1008F000F1F763E089EF93E00E94830383E592E0E0
:100900000197F1F762E089EF93E00E948303809101
:10091000080480620E94030484E0809309048CE050
:100920000E9403040E94090482E080930A0486E086
:10093000DF91CF910C94030480620E9403048BE446
:1009400096E40197F1F78091080480620E94030405
:1009500083E592E00197F1F78091080480620E949C
:100960000304D5CF90910C04691710F06FEF690F55
:10097000E62FF0E0E750FC4F9489890F80680C94D3
:10098000030441E00E94B00381E090E00895FB0180
:1009900001900020E9F73197AF01461B570BDC01AE
:1009A000ED91FC910280F381E02D09944F925F92CA
:1009B0006F927F92AF92BF92CF92DF92EF92FF92AF
:1009C0000F931F93CF93DF93CDB7DEB7A1970FB6E9
:1009D000F894DEBF0FBECDBF5C016A017B01F7FE5C
:1009E00047C0DC01ED91FC910190F081E02D6DE2BA
:1009F00009958C0122273327A9012C193D094E099D
:100A00005F0919A2FE01B1967F019AE0492E512C8F
:100A1000612C712CCA01B901A30192010E941F101F
:100A2000605DD7016E937D012115310541055105AA
:100A300089F790E080E0109721F0BD01C5010E9488
:100A4000C704800F911FA1960FB6F894DEBF0FBEAA
:100A5000CDBFDF91CF911F910F91FF90EF90DF906D
:100A6000CF90BF90AF907F906F905F904F90089520
:100A7000AB01960119A28E010F5D1F4F8AE0C82EAF
:100A8000D12CE12CF12CCA01B901A70196010E94D9
:100A90001F10605DF80162938F012115310541053A
:100AA000510589F790E080E0309769F2BF01C501F8
:100AB0000E94C704C8CF0F931F93CF93DF93EC011D
:100AC0000E94C7048C016FE471E0CE010E94C7044C
:100AD000800F911FDF91CF911F910F9108950F9378
:100AE0001F93CF93DF93EC010E94A2018C016FE46E
:100AF00071E0CE010E94C704800F911FDF91CF915A
:100B00001F910F9108956F927F928F929F92AF9253
:100B1000BF92CF92DF92EF92FF920F931F93CF93EA
:100B2000DF936C017B01B60181E393E00E946F05C6
:100B3000B6018AED93E00E946F0564E670E080E004
:100B400090E00E946E018AED93E00E943203181635
:100B500019060CF09BC0F70101900020E9F73197CE
:100B60008F010E191F0909F05FC0B70181E393E0FF
:100B70000E945B0568EE73E080E090E0DF91CF912A
:100B80001F910F91FF90EF90DF90CF90BF90AF90AB
:100B90009F908F907F906F900C946E01C1E0D0E099
:100BA0002FB7F89480912D0390912E03A0912F03DD
:100BB000B09130032FBF8093E2039093E303A0939F
:100BC000E403B093E5038AED93E00E94480397FFA6
:100BD00064C02FB7F89480912D0390912E03A091BB
:100BE0002F03B09130032FBF4091E2035091E303F4
:100BF0006091E4037091E503841B950BA60BB70B82
:100C00004091DE035091DF036091E0037091E103B6
:100C100084179507A607B707B0F26EE371E081E38A
:100C200093E00E945B058FCFD0E0C0E0B9CF209762
:100C300009F4B6CF3F01BC2EAD2E2197D3012E91E2
:100C40003D01022E000C330B2817390719F02097AD
:100C500091F7A6CF209709F4A1CFA701BF016C1B84
:100C60007D0B30E020E0DA019D90AD01DB018D903D
:100C7000BD01891005C02F5F3F4F2C173D0798F32A
:100C8000C217D307C1F6CB2DDA2D8ACF68EE73E0F9
:100C900080E090E00E946E0146CFF701EC0FFD1F4F
:100CA0002081022E000C330B8217930709F0BFCF6F
:100CB00021960C171D0709F073CF57CF0C94C7046A
:100CC0000F931F93CF93DF938C01EB0164E471E0EA
:100CD0008AED93E00E945E06B8018AED93E00E94DF
:100CE000A2016EE471E08AED93E00E945B0564EF7F
:100CF00071E080E090E00E946E01BE018AED93E019
:100D00000E946F0564EF71E080E090E00E946E0148
:100D10006AE18AED93E00E94D60268E873E180E020
:100D200090E0DF91CF911F910F910C946E010F9382
:100D30001F93CF93DF93EC0188819981009759F03D
:100D40002A813B812617370730F081E0DF91CF9170
:100D50001F910F9108958B016F5F7F4F0E94921139
:100D6000009759F0998388831B830A832C813D81E6
:100D7000232B59F7FC011082E8CF80E0E7CFFC017C
:100D800080819181009711F00C9409110895EF92E0
:100D9000FF920F931F93CF93DF93EC011982188278
:100DA0001B821A821D821C8286179707D9F0FB01CD
:100DB0000081118101151105A9F0E480F580B701CA
:100DC0000E94970628813981811113C021153105B0
:100DD00019F0C9010E940911198218821D821C8212
:100DE0001B821A82DF91CF911F910F91FF90EF909C
:100DF0000895FD82EC82B801C901DF91CF911F9166
:100E00000F91FF90EF900C945812EF92FF920F9376
:100E10001F93CF93DF93EC017B01198218821B8211
:100E20001A821D821C82FB0101900020E9F7319794
:100E30008F01061B170BB8010E9497062881398184
:100E4000811113C02115310519F0C9010E94091142
:100E5000198218821D821C821B821A82DF91CF9117
:100E60001F910F91FF90EF9008951D830C83B701A0
:100E7000C901DF91CF911F910F91FF90EF900C94DA
:100E800058120C94CB0FCF92DF92EF92FF92C0904A
:100E90000401D0900501E0900601F0900701C70120
:100EA000B60128EE33E040E050E00E94411030935C
:100EB000D7022093D60268EE73E0629FC001639F61
:100EC000900D729F900D1124092E000CAA0BBB0BE4
:100ED000C81AD90AEA0AFB0AC701B60124E630E0BB
:100EE00040E050E00E9441103093D5022093D4029C
:100EF00064E6629FC001639F900D1124092E000CCF
:100F0000AA0BBB0BC81AD90AEA0AFB0AC092040151
:100F1000D0920501E0920601F0920701C701B601E7
:100F20002AE030E040E050E00E9441103093D302CC
:100F30002093D2026AE0629FC001639F900D11244A
:100F4000C81AD90AD092D102C092D0026C2D81E089
:100F500090E00E9441076091D20282E090E00E94FE
:100F600041076091D40283E090E00E9441076091C4
:100F7000D60284E090E0FF90EF90DF90CF900C9449
:100F800041070C94C30F0F931F93CF93DF9381E01E
:100F900090E00E94C107C82FD0E0D093D102C09347
:100FA000D00282E090E00E94C107182F90E0909359
:100FB000D3028093D20283E090E00E94C107082F01
:100FC00090E09093D5028093D40284E090E00E9458
:100FD000C10790E09093D7028093D60228EE33E0C9
:100FE000829FD001839FB00D929FB00D112484E6A3
:100FF000089FA00DB11D11248AE0189FA00DB11DFE
:101000001124AC0FBD1FAD010B2E000C660B770B2E
:10101000409304015093050160930601709307010A
:101020002AE030E00E94601060932403709325034F
:101030008093260390932703DF91CF911F910F9107
:10104000089582E00E94B600019799F580912203ED
:101050009091230301968A30910554F490932303D1
:1010600080932203609122038AE090E00C94410770
:1010700010922303109222038091040190910501A4
:10108000A0910601B0910701181619061A061B0651
:101090005CF40197A109B1098093040190930501C3
:1010A000A0930601B09307010E9443070E94C30763
:1010B000D9CF08951F920F920FB60F9211242F933C
:1010C0003F938F939F93AF93BF9380912D03909104
:1010D0002E03A0912F03B09130033091280323E019
:1010E000230F2D3758F50196A11DB11D209328031C
:1010F00080932D0390932E03A0932F03B09330037E
:101100008091290390912A03A0912B03B0912C0385
:101110000196A11DB11D8093290390932A03A093EA
:101120002B03B0932C03BF91AF919F918F913F916F
:101130002F910F900FBE0F901F90189526E8230F48
:101140000296A11DB11DD2CF1F920F920FB60F9222
:1011500011242F933F934F935F936F937F938F93BC
:101160009F93AF93BF93EF93FF93E0910201F091B0
:1011700003010995FF91EF91BF91AF919F918F91DD
:101180007F916F915F914F913F912F910F900FBE83
:101190000F901F9018951F920F920FB60F92112467
:1011A0002F933F934F935F936F937F938F939F936F
:1011B000AF93BF93EF93FF93E0910001F091010192
:1011C0000995FF91EF91BF91AF919F918F917F9181
:1011D0006F915F914F913F912F910F900FBE0F90A4
:1011E0001F9018951F920F920FB60F9211242F93F4
:1011F0003F934F935F936F937F938F939F93AF939F
:10120000BF93EF93FF9381E393E00E942E02FF913F
:10121000EF91BF91AF919F918F917F916F915F916E
:101220004F913F912F910F900FBE0F901F901895E7
:101230001F920F920FB60F9211242F938F939F93AB
:10124000EF93FF93E0914103F09142038081E0919D
:101250004703F091480382FD1BC0908180914A03AF
:101260008F5F8F7320914B03821741F0E0914A0307
:10127000F0E0EF5CFC4F958F80934A03FF91EF9174
:101280009F918F912F910F900FBE0F901F901895E7
:101290008081F4CF1F920F920FB60F9211242F93DB
:1012A0003F934F935F936F937F938F939F93AF93EE
:1012B000BF93EF93FF93E0911A03F0911B033097D4
:1012C00049F0A685B7858585968D91FF14C09C91C0
:1012D0008923A1F4FF91EF91BF91AF919F918F91DD
:1012E0007F916F915F914F913F912F910F900FBE22
:1012F0000F901F9018959C91892361F7A389B48959
:101300009C918589809589238C93868997890197FB
:10131000F1F7608D718DA685B785558538E020E0A1
:10132000CB010197F1F7822F90E095958795282FB3
:101330004C91452309F02068315091F7868D81FD4D
:1013400020958091190390E001968F739927309131
:101350001803381799F0A0911903B0E0A852BD4FB7
:101360002C9380931903828D938D0197F1F7A389B4
:10137000B4898C919589892B8C93ACCF868D8160B3
:10138000868FF1CF0E9443070E94C30761E083E18B
:101390000E94DF00109221031092200310921F037D
:1013A00010921E030895CF92DF92EF92FF92109257
:1013B00034031092330398EEC92E93E0D92EE12C1A
:1013C000F12CC0923503D0923603E0923703F092AD
:1013D000380382E191E0909332038093310385ECEE
:1013E00090E090933E0380933D0384EC90E09093D3
:1013F000400380933F0380EC90E0909342038093FE
:10140000410381EC90E0909344038093430382EC8A
:1014100090E0909346038093450386EC90E0909390
:1014200048038093470310924A0310924B03109293
:101430004C0310924D031092FC031092FB0386E3C1
:1014400091E09093FA038093F90383E08093FD0386
:101450008FEF8093FE0384E08093FF0385E0809309
:10146000000486E08093010487E08093020488E012
:101470008093030410920404109205041092060451
:10148000109207041092080481E00E941104109247
:10149000DD031092DC03C092DE03D092DF03E09202
:1014A000E003F092E10384E291E09093DB03809308
:1014B000DA031092F1031092F0031092F3031092EA
:1014C000F2031092F5031092F4031092F7031092B6
:1014D000F6036091F8036E7F6D7F6093F803669565
:1014E000617081E068278AE00E94DF0061E08AE0A5
:1014F0000E940D01E8EBF0E0E491E093EA03E4EAF6
:10150000F0E0E491F0E0EE0FFF1FE057FF4F859110
:1015100094919093EC038093EB0360E089E00E9448
:101520000D018091F80381FD04C061E089E00E9413
:10153000DF0089E08093E603E7EBF0E0E491E093DD
:10154000E703E3EAF0E0E491F0E0EE0FFF1FEA5773
:10155000FF4F859194919093E9038093E80362E5AE
:1015600071E084ED93E00E94050760E671E08EEC87
:1015700093E0FF90EF90DF90CF900C940507CF930E
:10158000DF93CDB7DEB72C970FB6F894DEBF0FBE52
:10159000CDBF789484B5826084BD84B5816084BDFC
:1015A00085B5826085BD85B5816085BD80916E0001
:1015B000816080936E001092810080918100826032
:1015C000809381008091810081608093810080916F
:1015D00080008160809380008091B100846080935E
:1015E000B1008091B00081608093B00080917A005A
:1015F000846080937A0080917A00826080937A0080
:1016000080917A00816080937A0080917A0080686E
:1016100080937A001092C100E0914103F09142035F
:1016200082E08083E0913D03F0913E031082E091DF
:101630003F03F09140038FEC808310924903E091C7
:101640004503F091460386E08083E0914303F091E7
:101650004403808180618083E0914303F0914403DF
:10166000808188608083E0914303F091440380810E
:1016700080688083E0914303F091440380818F7DF3
:1016800080831092F5031092F4031092F3031092EA
:10169000F2031092F1031092F0038DE991E0909320
:1016A000F7038093F6039091E603963108F047C064
:1016B0002DEB30E03093F1032093F0032BE931E080
:1016C0003093F3032093F2032CE231E03093F503DF
:1016D0002093F4032091680084E0983048F031E0D2
:1016E0009E3008F430E081E001C0880F3A95EAF7B7
:1016F000822B809368002DE630E0983050F02BE686
:1017000030E09E3030F02CE630E0963110F030E0E2
:1017100020E03093EE032093ED03292F30E0983042
:1017200008F0DFC281E001C0880F9A95EAF7809344
:10173000EF038091F6039091F7030197F1F7809101
:10174000F4039091F503892B49F1E0911A03F0918C
:101750001B0383E0EA3DF80709F1309739F0A389CC
:10176000B4899C918589809589238C938091F80315
:101770008E7F8093F80310921903109218038AED5C
:1017800093E090931B0380931A03E091ED03F09193
:10179000EE0380819091EF03892B808362E08EE0DD
:1017A0000E940D0161E083E10E940D0161E08DE086
:1017B0000E940D0160E082E00E940D0181E298E04C
:1017C0009093010180930001809169008360809370
:1017D0006900E89A82E00E9411040E94090460E016
:1017E00085E00E94B2046EE671E089EF93E00E940A
:1017F0005E0661E082E00E94B20461EE71E089EF72
:1018000093E00E945E0661E08DE00E94DF0066E7E3
:1018100071E081E393E00E945B0567E871E0CE012F
:1018200001960E9405076AE871E0CE0101960E94C8
:101830008305CE0101960E94BF066DE871E0CE01DE
:1018400001960E9405076AE871E0CE0101960E94A8
:101850008305CE0101960E94BF0662E971E0CE01C8
:1018600001960E9405076BE971E0CE0101960E9486
:101870008305CE0101960E94BF0661EA71E0CE01A8
:1018800001960E9405076AE871E0CE0101960E9468
:101890008305CE0101960E94BF066BEA71E0CE017E
:1018A00001960E9405076AE871E0CE0101960E9448
:1018B0008305CE0101960E94BF066DEB71E081E3C6
:1018C00093E00E945B0564E670E080E090E00E9497
:1018D0006E0166ED71E0CE0101960E94050764ED90
:1018E00073E0CE0107960E94C706BE016F5F7F4F6F
:1018F000CE0107960E946006CE0107960E94BF06A1
:10190000CE0101960E94BF0660E08DE00E94DF00DC
:101910000E94090482E390E00E94C10781110E94A5
:10192000430760E082E390E00E9441078AE090E094
:101930000E94C10790E090932303809322030E94AA
:10194000C3078091040190910501A0910601B09117
:101950000701181619061A061B0624F461E083E134
:101960000E94DF0080E0E82E80E0F82E01E010E029
:101970008AED93E00E943203181619060CF0A6C0F7
:101980008AED93E00E944803823509F051C26AE073
:1019900070E080E090E00E946E018AED93E00E948A
:1019A0004803853509F092C06AE070E080E090E07D
:1019B0000E946E018AED93E00E944803833609F08D
:1019C00085C06AE070E080E090E00E946E018AEDE0
:1019D00093E00E9448038F3609F078C06AE070E017
:1019E00080E090E00E946E018AED93E00E9448033F
:1019F000843609F06BC06AE070E080E090E00E94FD
:101A00006E018AED93E00E944803853609F05EC0BE
:101A10006AE070E080E090E00E946E018AED93E061
:101A20000E944803813309F069C1809104019091BB
:101A30000501A0910601B09107010A96A11DB11DF3
:101A40008093040190930501A0930601B0930701D0
:101A50006EEE71E0CE0101960E94050764ED73E021
:101A6000CE0107960E94C706BE016F5F7F4FCE0171
:101A700007960E946006CE0107960E94BF06CE011F
:101A800001960E94BF066EEE71E0CE0101960E94A3
:101A900005076EEC73E0CE0107960E94C706BE01F3
:101AA0006F5F7F4FCE0107960E946006CE010796BA
:101AB0000E94BF06CE0101960E94BF060E94C20985
:101AC0006AE070E080E090E00E946E0160E080E0FB
:101AD0000E94B20462E672E089EF93E00E945E0623
:101AE0004091040150910501609106017091070138
:101AF00089EF93E00E94D6046FE672E089EF93E0ED
:101B00000E945E0661E080E00E94B20468E672E036
:101B100089EF93E00E945E064091240350912503D3
:101B2000609126037091270389EF93E00E94D60409
:101B30006FE672E089EF93E00E945E0660E08BE062
:101B40000E94B20463E772E089EF93E00E945E06B0
:101B500061E08DE00E94B204409122035091230382
:101B6000052E000C660B770B89EF93E00E94D604DC
:101B70006FE672E089EF93E00E945E0680910401B7
:101B800090910501A0910601B09107010597A1056B
:101B9000B10569F58091200390912103892B39F5D6
:101BA000109321030093200361E08DE00E94DF0089
:101BB00069E772E0CE0101960E94050764ED73E0CB
:101BC000CE0107960E94C706BE016F5F7F4FCE0110
:101BD00007960E946006CE0107960E94BF06CE01BE
:101BE00001960E94BF0660E08DE00E94DF008091B8
:101BF000040190910501A0910601B0910701892B84
:101C00008A2B8B2B89F560E083E10E94DF008091B5
:101C10001E0390911F03892B39F510931F03009326
:101C20001E0361E08DE00E94DF006DE972E0CE01ED
:101C300001960E94050764ED73E0CE0107960E94AD
:101C4000C706BE016F5F7F4FCE0107960E946006F8
:101C5000CE0107960E94BF06CE0101960E94BF06E4
:101C600060E08DE00E94DF008EE00E94B600892BCC
:101C700009F060C180911C0390911D03892BF9F438
:101C800010931D0300931C0364EC72E0CE010196D7
:101C90000E9405076EEC73E0CE0107960E94C7060E
:101CA000BE016F5F7F4FCE0107960E946006CE0196
:101CB00007960E94BF06CE0101960E94BF0665E00E
:101CC00070E080E090E00E946E01E114F10409F4FC
:101CD0004FCE0E941A02882309F44ACE0E940000C7
:101CE00047CE9E3040F42850310981E001C0880F72
:101CF0002A95EAF71CCD2E503109F7CF823389F5AA
:101D00008091040190910501A0910601B091070115
:101D10004496A11DB11D8093040190930501A093E9
:101D20000601B09307016BE072E0CE0101960E94BC
:101D3000050764ED73E0CE0107960E94C706BE0159
:101D40006F5F7F4FCE0107960E946006CE01079617
:101D50000E94BF06CE0101960E94BF066BE072E0B2
:101D600094CE833389F58091040190910501A0916F
:101D70000601B09107014E96A11DB11D809304018B
:101D800090930501A0930601B093070168E272E009
:101D9000CE0101960E94050764ED73E0CE0107961F
:101DA0000E94C706BE016F5F7F4FCE0107960E945B
:101DB0006006CE0107960E94BF06CE0101960E94E2
:101DC000BF0668E272E061CE843309F079CE80917B
:101DD000040190910501A0910601B0910701889638
:101DE000A11DB11D8093040190930501A0930601EC
:101DF000B093070165E472E0CE0101960E940507E9
:101E000064ED73E0CE0107960E94C706BE016F5FC6
:101E10007F4FCE0107960E946006CE0107960E9472
:101E2000BF06CE0101960E94BF0665E472E02DCE8A
:101E3000843409F04BCE6AE070E080E090E00E94CC
:101E40006E018AED93E00E944803813609F03ECE90
:101E50006AE070E080E090E00E946E018AED93E01D
:101E60000E944803843709F031CE6AE070E080E0D8
:101E700090E00E946E018AED93E00E944803813653
:101E800009F024CE64E471E08AED93E00E945E06DE
:101E900064ED73E08AED93E00E94A2016EE471E0CC
:101EA0008AED93E00E945B0568EE73E080E090E0CD
:101EB0000E946E0162E672E08AED93E00E945E0687
:101EC0004091040150910501609106017091070154
:101ED0008AED93E00E94D6046FE471E08AED93E00E
:101EE0000E94C70468E672E08AED93E00E945E06F5
:101EF000409124035091250360912603709127039C
:101F00008AED93E00E94D6046FE471E08AED93E0DD
:101F10000E94C70464EF71E080E090E00E946E01CF
:101F20006AE18AED93E00E94D60268E873E180E0FE
:101F300090E0CACD10921D0310921C03C0CE8EEC0F
:101F400093E00E94BF0684ED93E00E94BF0684E206
:101F500091E09093DB038093DA0380911A039091D0
:101F60001B038A5D934071F4E091ED03F091EE0361
:101F700090818091EF0380958923808310921B03C9
:101F800010921A030895F999FECF92BD81BDF89A77
:101F9000992780B50895262FF999FECF1FBA92BDD3
:101FA00081BD20BD0FB6F894FA9AF99A0FBE01963A
:101FB00008952F923F924F925F926F927F928F92ED
:101FC0009F92AF92BF92CF92DF92EF92FF920F93C8
:101FD0001F93CF93DF93CDB7DEB7CA1BDB0B0FB6D2
:101FE000F894DEBF0FBECDBF09942A88398848888F
:101FF0005F846E847D848C849B84AA84B984C88425
:10200000DF80EE80FD800C811B81AA81B981CE0F1B
:10201000D11D0FB6F894DEBF0FBECDBFED01089500
:10202000A29FB001B39FC001A39F700D811D112419
:10203000911DB29F700D811D1124911D0895A1E283
:102040001A2EAA1BBB1BFD010DC0AA1FBB1FEE1F32
:10205000FF1FA217B307E407F50720F0A21BB30B7D
:10206000E40BF50B661F771F881F991F1A9469F7F9
:1020700060957095809590959B01AC01BD01CF0155
:102080000895052E97FB1EF400940E94581057FDEA
:1020900007D00E941F1007FC03D04EF40C94581078
:1020A00050954095309521953F4F4F4F5F4F089584
:1020B00090958095709561957F4F8F4F9F4F0895B4
:1020C0000E941010B7FF0895821B930B0895EE0F26
:1020D000FF1F0590F491E02D09940F931F93CF9368
:1020E000DF938230910510F482E090E0E0911304D8
:1020F000F091140430E020E0B0E0A0E0309799F4D3
:102100002115310509F44AC0281B390B243031054B
:10211000D8F58A819B816115710589F1FB01938353
:102120008283FE0111C040815181028113814817D1
:102130005907E0F04817590799F4109761F0129683
:102140000C93129713961C933296CF01DF91CF9187
:102150001F910F9108950093130410931404F4CF6A
:102160002115310551F04217530738F0A901DB0161
:102170009A01BD01DF01F801C1CFEF01F9CF9093C2
:10218000140480931304CDCFFE01E20FF31F81935B
:1021900091932250310939832883D7CF209111049C
:1021A00030911204232B41F420910A0130910B014C
:1021B00030931204209311042091080130910901F9
:1021C0002115310541F42DB73EB740910C015091D6
:1021D0000D01241B350BE0911104F0911204E2175C
:1021E000F307A0F42E1B3F0B2817390778F0AC013A
:1021F0004E5F5F4F2417350748F04E0F5F1F509317
:10220000120440931104819391939FCFF0E0E0E09A
:102210009CCFCF93DF930097E9F0FC0132971382B4
:102220001282A0911304B0911404ED0130E020E07B
:102230001097A1F420813181820F931F2091110406
:10224000309112042817390709F061C0F093120485
:10225000E0931104DF91CF910895EA01CE17DF07D3
:10226000E8F54A815B819E0141155105B1F7E9010D
:10227000FB83EA8349915991C40FD51FEC17FD07E1
:1022800061F4808191810296840F951FE901998301
:102290008883828193819B838A83F0E0E0E01296B9
:1022A0008D919C9113970097B9F52D913C911197C1
:1022B000CD010296820F931F2091110430911204D8
:1022C0002817390739F6309751F5109214041092F7
:1022D0001304B0931204A0931104BCCFD383C28320
:1022E00040815181840F951FC817D90761F44E5F53
:1022F0005F4F88819981480F591F518340838A819C
:102300009B81938382832115310509F0B0CFF0932F
:102310001404E09313049ECFFD01DC01C0CF1382AF
:102320001282D7CFB0E0A0E0E8E9F1E10C94DB0F36
:102330008C01009751F4CB010E946D108C01C801F3
:10234000CDB7DEB7E0E10C94F70FFC01E60FF71F05
:102350009C0122503109E217F30708F49DC0D9010E
:10236000CD91DC911197C617D70798F0C530D105EC
:1023700030F3CE0104978617970708F3C61BD70BD7
:102380002297C193D1936D937C93CF010E94091141
:10239000D6CF5B01AC1ABD0A4C018C0E9D1EA091DC
:1023A0001304B0911404512C412CF12CE12C109702
:1023B00031F580911104909112048815990509F066
:1023C0005CC04616570608F058C0809108019091ED
:1023D0000901009741F48DB79EB740910C015091CF
:1023E0000D01841B950BE817F90708F055C0F09311
:1023F0001204E0931104F90171836083A0CF8D91E1
:102400009C91119712966C90129713967C9013974B
:10241000A815B90559F56C0142E0C40ED11CCA14C7
:10242000DB0420F1AC014A195B09DA011296159719
:1024300080F06282738251834083D9016D937C93D3
:10244000E114F10471F0D7011396FC93EE93129707
:1024500076CF22968C0F9D1FF90191838083F30123
:10246000EFCFF0931404E093130469CF4816590694
:1024700008F42C017D01D3019ACFCB010E946D108D
:102480007C01009749F0AE01B8010E944F12C801CB
:102490000E940911870153CF10E000E050CFFB01EB
:1024A000DC0102C001900D9241505040D8F70895D0
:1024B000FB01DC0101900D920020E1F7089510E08E
:1024C000C2E6D0E004C0FE010E9467102196C33628
:0824D000D107C9F7F894FFCF12
:1024D800A101A10107000000000015048000000010
:1024E80000005002B001DD019D020E02EC01000265
:1024F80000000000D602B0016A03D5023203480387
:10250800BD0200000000C104B0016A0369034572FE
:10251800726F720041542B434D47533D2200220DE8
:102528000A002B39313934323232393138323100FC
:102538002B39313836323438383639363300574546
:102548004C434F4D4500496E697469616C697A69FD
:102558006E672E2E2E2E004154004F4B00415445DD
:10256800310041542B4350494E3F00524541445994
:102578000041542B434D47463D310041542B434EB7
:102588004D493D322C322C302C302C3000496E69AC
:102598007469616C697A65642053756363657373E4
:1025A80066756C6C790057656C636F6D6520546F48
:1025B80020456E65726779204D6574657200596FA4
:1025C800757220526563686172676520697320556A
:1025D80070646174653A2031303000596F7572202B
:1025E800526563686172676520697320557064611C
:1025F80074653A2032303000596F75722052656325
:102608006861726765206973205570646174653A02
:102618002033303000596F757220526563686172DB
:102628006765206973205570646174653A20343099
:102638003000556E69743A0050726963653A00203B
:1026480020200050756C736500596F7572204261C7
:102658006C616E6365206973204C6F7720506C65E0
:1026680061736520526563686172676500596F75AB
:10267800722042616C616E63652069732046696EE1
:1026880069736820506C6561736520526563686181
:1026980072676500546865667420416C61726D00EC
:00000001FF
